:020000040000FA
:10000000FC3F00201D050000000000000000000073
:1000100000000000000000000000000000000000E0
:1000200000000000000000000000000000000000D0
:10003000000000000000000000000000210500009A
:100040000000000029050000000000000000000082
:1000500000000000000000000000000000000000A0
:100060000000000000000000000000000000000090
:100070000000000000000000000000000000000080
:1000800000F002F800F04DF80CA030C80838241831
:100090002D18A246671EAB4654465D46AC4201D1C0
:1000A00000F03FF87E460F3E0FCCB64601263342A5
:1000B00000D0FB1AA246AB463343184704090000A0
:1000C00024090000103A02D378C878C1FAD8520740
:1000D00001D330C830C101D504680C6070470000FE
:1000E0000023002400250026103A01D378C1FBD854
:1000F000520700D330C100D50B60704710B564299A
:1001000002D100F0B3FA10BD752902D100F0AEFAA9
:1001100010BD002010BD1FB5C046C0461FBD10B5A4
:1001200010BD00F023FC1146FFF7F5FF00F015F9B4
:1001300000F03BFC03B4FFF7F2FF03BC00F03DFA14
:10014000512109060878CC49CC4A12788854CB4909
:100150000978491CC94A11705121090608711146D4
:100160000978632901D00D280CD1C4490978491EAA
:10017000C24A11700021C04AC04B1B78D1540121E2
:10018000BF4A11707047704708B50021009102E026
:100190000099491C009100998142F9D308BD0028BB
:1001A00008D0052109078988B64A1140052212079F
:1001B000918007E005210907898801221143052262
:1001C00012079180704730B50546072223E0284684
:1001D0001041C007400F0521090788800A20FFF75A
:1001E000D3FF052000078088022108430521090765
:1001F000888060008989C9130843C4B20A20FFF7C8
:10020000C3FF0520000780880221884305210907D4
:100210008880501E42B2002AD9DA204630BDF0B59F
:1002200004460220FFF7BBFF0B20FFF7CCFF204660
:10023000FFF7C9FFFF20FFF7C6FF0546FF20FFF7C6
:10024000C2FF06460020FFF7AAFF3002284307B28C
:100250003846F0BD30B505460C460220FFF79FFF3B
:100260000A20FFF7B0FF2846FFF7ADFF2046FFF753
:10027000AAFF0020FFF793FF30BD70B50446814E02
:10028000761C002C19DD201E01DB014600E04142F6
:100290000CB221467CA000F0A5F92046E117490EDA
:1002A000091849020D0C29467CA000F09BF910208A
:1002B000411B3046884086B218E021467BA000F002
:1002C00091F9201E01DB014600E041420CB22046BC
:1002D000E117490E091849020D0C29466FA000F0DC
:1002E00081F91020411B304608410646304670BD5A
:1002F00070B504460025002C06DA604204B21120D5
:100300006F490968087103E01F206D490968087189
:10031000FF206B49096808726949096848721F2003
:1003200067490968487166490968887164490968BC
:10033000C87100250EE00A21204600F0D7F9C8B2A6
:100340005F49096848550A21204600F0CFF904B2F8
:10035000681CC5B2042DEEDB70BD082051210906D2
:1003600008730220574908605748FFF70DFF57A050
:1003700000F038F902212D20FFF76CFF01212C201D
:10038000FFF768FF76E05848FFF7FEFE05200007FC
:10039000008956490870084600788007800F087069
:1003A00008460078002806D001281AD002282ED04E
:1003B000032858D141E00E20FFF731FF4C49088057
:1003C0000020085EFFF759FF4A4908800846008868
:1003D0000521090708804748018847A000F002F975
:1003E00042E01020FFF71BFF414908800020085E13
:1003F000FFF743FF3F4908800846008805210907A9
:1004000008803C4801883FA000F0ECF82CE0122066
:10041000FFF705FF364908800020085EFFF72DFF33
:1004200034490880084600880521090708803148BA
:10043000018837A000F0D6F800BF1220FFF7EFFECA
:100440002B4908800020085EFFF717FF2949088024
:1004500008460088052109070880264801882CA045
:1004600000F0C0F800BF00BF00BF21490020085EB7
:10047000FFF73EFF87E70000180000200000002083
:1004800001000020FEFF00007265675F7265616415
:1004900020706F733A2025640A0000006C69676859
:1004A0007473206F6E3A2025640A00007265675FDE
:1004B00072656164206E65673A2025640A00000059
:1004C0000400002000E100E040420F000A0A5765E6
:1004D0006C636F6D6520746F20436F727465782D47
:1004E0004D3020536F430A0080841E000A00002014
:1004F000080000200C000020582D417869733A2034
:1005000025750A00592D417869733A2025750A002E
:100510005A2D417869733A2025750A00074800472B
:1005200007B5FFF730FE07BD07B5FFF709FE07BDAA
:1005300003480449044A054B70470000810000004D
:10054000E0000020E0080020E0040020E00400209B
:1005500000BF51210906097AC907C90FF9D15122F3
:1005600012061071704700BF51210906097A08224E
:100570001142F9D0512109060878704710B5034699
:100580000C460A2B02D10D20FFF7E2FF1846FFF7B9
:10059000DFFF10BD10B50446FFF7E5FF0346184620
:1005A000FFF7D6FF0D2B03D10A20FFF7D1FF0A2357
:1005B000184610BD01460020704702A000F012F856
:1005C00000BFFEE70A4552524F52202D2065786940
:1005D000742066726F6D206D61696E28290A0000B3
:1005E000704700000FB4054910B503AA029800F047
:1005F0007DF910BC08BC04B01847000010000020B2
:10060000F8B50E460446002020622046E16888477F
:10061000002829D0252802D06268A16820E0E1687E
:1006200020460027884705001ED028464138192853
:1006300002D80127FF02203532462046276029468E
:10064000FFF75CFD002808D0012804D0F61DF6084D
:10065000F6000836D9E7361DD7E762682846A16854
:100660009047206A401CCFE7206AF8BDF7B5002507
:1006700075291068009914A611D0C046C0460028FC
:1006800002DA404211A608E0009909688A0701D5FC
:100690000FA602E0490704D50EA6012501E0C046D9
:1006A000C046009F0024243704E000F033F93031C5
:1006B0003955641C0028F8D12B4632462146009853
:1006C00000F0BBF8FEBD0000000000002D0000009F
:1006D0002B00000020000000002203098B422CD3D5
:1006E000030A8B4211D300239C464EE003460B4382
:1006F0003CD4002243088B4231D303098B421CD3E4
:10070000030A8B4201D394463FE0C3098B4201D3D5
:10071000CB01C01A524183098B4201D38B01C01A0D
:10072000524143098B4201D34B01C01A5241030984
:100730008B4201D30B01C01A5241C3088B4201D333
:10074000CB00C01A524183088B4201D38B00C01AE0
:10075000524143088B4201D34B00C01A5241411A07
:1007600000D201465241104670475DE0CA0F00D0EA
:100770004942031000D34042534000229C460309E3
:100780008B422DD3030A8B4212D3FC22890112BA69
:10079000030A8B420CD3890192118B4208D3890141
:1007A00092118B4204D389013AD0921100E0890959
:1007B000C3098B4201D3CB01C01A524183098B423A
:1007C00001D38B01C01A524143098B4201D34B0123
:1007D000C01A524103098B4201D30B01C01A524186
:1007E000C3088B4201D3CB00C01A524183088B420D
:1007F00001D38B00C01A5241D9D243088B4201D396
:100800004B00C01A5241411A00D201466346524180
:100810005B10104601D34042002B00D5494270477F
:1008200063465B1000D3404201B50020C046C0467D
:1008300002BD7047704770477047FFB504460D46CC
:1008400081B0243000902168880604D51022E06928
:100850009143216000E00120A84201DD471B00E038
:1008600000270498A1697A191018081AA061207845
:10087000C00602D42046C046C046002608E00398C1
:100880006268A168805D9047206A401C761C2062E7
:1008900004988642F3DB2078C0060AD52046C0467D
:1008A000C04606E06268A16830209047206A401C7C
:1008B000206238467F1E0028F4DC07E0009862685A
:1008C000A168405D9047206A401C206228466D1E4A
:1008D0000028F3DC2046C046C0462078000602D53A
:1008E000022005B0F0BD0120FBE70000084B70B509
:1008F0000D467B4400F027F804462846FFF75AFED1
:10090000002802D00020C04370BD204670BD00000A
:1009100087FCFFFF01468008081A02091018020A26
:100920001018020C1018C008820012185200891A00
:1009300001E00A39401C0A29FBD2704701694A1CB0
:1009400002610878704700B58FB0029100210591CF
:100950000549019379440391114604906846FFF7D5
:100960004FFE0FB000BD0000E5FFFFFF754600F031
:1009700023F8AE46050069465346C008C0008546C8
:1009800018B020B5FFF7D4FD60BC00274908B64673
:100990000026C0C5C0C5C0C5C0C5C0C5C0C5C0C58E
:1009A000C0C5403D49008D4670470446C046C0461C
:1009B0002046FFF7BFFB0000004870477C00002086
:1009C000E00900000000002018000000C400000042
:1009D000F809000018000020C8080000E00000002E
:1009E00000000000000000520000000000000000B5
:0809F000040000510000005159
:040000050000051DD5
:00000001FF
